{
  "contractName": "File",
  "abi": [
    {
      "constant": true,
      "inputs": [
        {
          "name": "a",
          "type": "string"
        },
        {
          "name": "b",
          "type": "string"
        }
      ],
      "name": "compareStrings",
      "outputs": [
        {
          "name": "",
          "type": "bool"
        }
      ],
      "payable": false,
      "stateMutability": "view",
      "type": "function",
      "signature": "0xbed34bba"
    },
    {
      "constant": false,
      "inputs": [
        {
          "name": "_account",
          "type": "string"
        },
        {
          "name": "_fileHash",
          "type": "string"
        }
      ],
      "name": "set",
      "outputs": [],
      "payable": false,
      "stateMutability": "nonpayable",
      "type": "function",
      "signature": "0xe942b516"
    },
    {
      "constant": false,
      "inputs": [
        {
          "name": "_account",
          "type": "string"
        }
      ],
      "name": "get",
      "outputs": [
        {
          "name": "",
          "type": "string"
        }
      ],
      "payable": false,
      "stateMutability": "nonpayable",
      "type": "function",
      "signature": "0x693ec85e"
    }
  ],
  "bytecode": "0x6080604052606060405190810160405280602e81526020017f516d624e3736413153596544614e337a314e77796e6373487979437944726f4781526020017f4539684c5535454c394766774b310000000000000000000000000000000000008152506000908051906020019062000078929190620005e7565b50610140604051908101604052806040805190810160405280606060405190810160405280602a81526020017f307839463434413265373439343364323233336332323332313835373638423881526020017f36323764384665354330000000000000000000000000000000000000000000008152508152602001602060405190810160405280600081525081525081526020016040805190810160405280606060405190810160405280602a81526020017f307861653432373246303238383746463142386665644637383634626134383481526020017f31463733666437426232000000000000000000000000000000000000000000008152508152602001602060405190810160405280600081525081525081526020016040805190810160405280606060405190810160405280602a81526020017f307863653046456334423644643837613562653663343135316334356165344381526020017f44354138353038433665000000000000000000000000000000000000000000008152508152602001602060405190810160405280600081525081525081526020016040805190810160405280606060405190810160405280602a81526020017f307834396665336435304641336163323535313530423934336130663061414181526020017f38323735313735413366000000000000000000000000000000000000000000008152508152602001602060405190810160405280600081525081525081526020016040805190810160405280606060405190810160405280602a81526020017f307834343335394545434546624441623933464238633832363339313631443081526020017f42303361633137313443000000000000000000000000000000000000000000008152508152602001602060405190810160405280600081525081525081526020016040805190810160405280606060405190810160405280602a81526020017f307832663633363638433241464432633937464532373239453337363236324281526020017f46646341353941363146000000000000000000000000000000000000000000008152508152602001602060405190810160405280600081525081525081526020016040805190810160405280606060405190810160405280602a81526020017f307831356235324337433141313638363139334445454633303043343031326181526020017f35443132463331414441000000000000000000000000000000000000000000008152508152602001602060405190810160405280600081525081525081526020016040805190810160405280606060405190810160405280602a81526020017f307834303533353962353943363264314439634441423262364130346330664581526020017f61456632663338343741000000000000000000000000000000000000000000008152508152602001602060405190810160405280600081525081525081526020016040805190810160405280606060405190810160405280602a81526020017f307835313232303043456537663832384436363464663844363161663835374281526020017f31613638334234416164000000000000000000000000000000000000000000008152508152602001602060405190810160405280600081525081525081526020016040805190810160405280606060405190810160405280602a81526020017f307831316234303135446563343242414364364546633532423334396444453081526020017f304334394332613632620000000000000000000000000000000000000000000081525081526020016020604051908101604052806000815250815250815250600290600a620005d29291906200066e565b50348015620005e057600080fd5b50620008a2565b828054600181600116156101000203166002900490600052602060002090601f016020900481019282601f106200062a57805160ff19168380011785556200065b565b828001600101855582156200065b579182015b828111156200065a5782518255916020019190600101906200063d565b5b5090506200066a9190620006c6565b5090565b82600a6002028101928215620006b3579160200282015b82811115620006b257825182906002620006a1929190620006ee565b509160200191906002019062000685565b5b509050620006c2919062000748565b5090565b620006eb91905b80821115620006e7576000816000905550600101620006cd565b5090565b90565b826002810192821562000735579160200282015b82811115620007345782518290805190602001906200072392919062000779565b509160200191906001019062000702565b5b50905062000744919062000800565b5090565b6200077691905b8082111562000772576000818162000768919062000831565b506002016200074f565b5090565b90565b828054600181600116156101000203166002900490600052602060002090601f016020900481019282601f10620007bc57805160ff1916838001178555620007ed565b82800160010185558215620007ed579182015b82811115620007ec578251825591602001919060010190620007cf565b5b509050620007fc9190620006c6565b5090565b6200082e91905b808211156200082a576000818162000820919062000856565b5060010162000807565b5090565b90565b506000818162000842919062000856565b50600101600062000854919062000856565b565b50805460018160011615610100020316600290046000825580601f106200087e57506200089f565b601f0160209004906000526020600020908101906200089e9190620006c6565b5b50565b610d2780620008b26000396000f3fe608060405260043610610057576000357c0100000000000000000000000000000000000000000000000000000000900463ffffffff168063693ec85e1461005c578063bed34bba1461019d578063e942b51614610314575b600080fd5b34801561006857600080fd5b506101226004803603602081101561007f57600080fd5b810190808035906020019064010000000081111561009c57600080fd5b8201836020820111156100ae57600080fd5b803590602001918460018302840111640100000000831117156100d057600080fd5b91908080601f016020809104026020016040519081016040528093929190818152602001838380828437600081840152601f19601f820116905080830192505050505050509192919290505050610473565b6040518080602001828103825283818151815260200191508051906020019080838360005b83811015610162578082015181840152602081019050610147565b50505050905090810190601f16801561018f5780820380516001836020036101000a031916815260200191505b509250505060405180910390f35b3480156101a957600080fd5b506102fa600480360360408110156101c057600080fd5b81019080803590602001906401000000008111156101dd57600080fd5b8201836020820111156101ef57600080fd5b8035906020019184600183028401116401000000008311171561021157600080fd5b91908080601f016020809104026020016040519081016040528093929190818152602001838380828437600081840152601f19601f8201169050808301925050505050505091929192908035906020019064010000000081111561027457600080fd5b82018360208201111561028657600080fd5b803590602001918460018302840111640100000000831117156102a857600080fd5b91908080601f016020809104026020016040519081016040528093929190818152602001838380828437600081840152601f19601f8201169050808301925050505050505091929192905050506108e5565b604051808215151515815260200191505060405180910390f35b34801561032057600080fd5b506104716004803603604081101561033757600080fd5b810190808035906020019064010000000081111561035457600080fd5b82018360208201111561036657600080fd5b8035906020019184600183028401116401000000008311171561038857600080fd5b91908080601f016020809104026020016040519081016040528093929190818152602001838380828437600081840152601f19601f820116905080830192505050505050509192919290803590602001906401000000008111156103eb57600080fd5b8201836020820111156103fd57600080fd5b8035906020019184600183028401116401000000008311171561041f57600080fd5b91908080601f016020809104026020016040519081016040528093929190818152602001838380828437600081840152601f19601f8201169050808301925050505050505091929192905050506109d8565b005b6060816001908051906020019061048b929190610bcf565b5060008090505b600a8110156108de576105f960018054600181600116156101000203166002900480601f0160208091040260200160405190810160405280929190818152602001828054600181600116156101000203166002900480156105345780601f1061050957610100808354040283529160200191610534565b820191906000526020600020905b81548152906001019060200180831161051757829003601f168201915b5050505050600283600a8110151561054857fe5b60020201600060028110151561055a57fe5b018054600181600116156101000203166002900480601f0160208091040260200160405190810160405280929190818152602001828054600181600116156101000203166002900480156105ef5780601f106105c4576101008083540402835291602001916105ef565b820191906000526020600020905b8154815290600101906020018083116105d257829003601f168201915b50505050506108e5565b156108d1576106d2600282600a8110151561061057fe5b60020201600160028110151561062257fe5b018054600181600116156101000203166002900480601f0160208091040260200160405190810160405280929190818152602001828054600181600116156101000203166002900480156106b75780601f1061068c576101008083540402835291602001916106b7565b820191906000526020600020905b81548152906001019060200180831161069a57829003601f168201915b505050505060206040519081016040528060008152506108e5565b156107ea57606060405190810160405280602e81526020017f516d624e3736413153596544614e337a314e77796e6373487979437944726f4781526020017f4539684c5535454c394766774b3100000000000000000000000000000000000081525060009080519060200190610749929190610bcf565b8054600181600116156101000203166002900480601f0160208091040260200160405190810160405280929190818152602001828054600181600116156101000203166002900480156107dd5780601f106107b2576101008083540402835291602001916107dd565b820191906000526020600020905b8154815290600101906020018083116107c057829003601f168201915b50505050509150506108e0565b600281600a811015156107f957fe5b60020201600160028110151561080b57fe5b016000908054600181600116156101000203166002900461082d929190610c4f565b5060008054600181600116156101000203166002900480601f0160208091040260200160405190810160405280929190818152602001828054600181600116156101000203166002900480156108c45780601f10610899576101008083540402835291602001916108c4565b820191906000526020600020905b8154815290600101906020018083116108a757829003601f168201915b50505050509150506108e0565b8080600101915050610492565b505b919050565b6000816040516020018082805190602001908083835b60208310151561092057805182526020820191506020810190506020830392506108fb565b6001836020036101000a03801982511681845116808217855250505050505090500191505060405160208183030381529060405280519060200120836040516020018082805190602001908083835b602083101515610994578051825260208201915060208101905060208303925061096f565b6001836020036101000a0380198251168184511680821785525050505050509050019150506040516020818303038152906040528051906020012014905092915050565b81600190805190602001906109ee929190610bcf565b508060009080519060200190610a05929190610bcf565b5060008090505b600a811015610bca57610b7360018054600181600116156101000203166002900480601f016020809104026020016040519081016040528092919081815260200182805460018160011615610100020316600290048015610aae5780601f10610a8357610100808354040283529160200191610aae565b820191906000526020600020905b815481529060010190602001808311610a9157829003601f168201915b5050505050600283600a81101515610ac257fe5b600202016000600281101515610ad457fe5b018054600181600116156101000203166002900480601f016020809104026020016040519081016040528092919081815260200182805460018160011615610100020316600290048015610b695780601f10610b3e57610100808354040283529160200191610b69565b820191906000526020600020905b815481529060010190602001808311610b4c57829003601f168201915b50505050506108e5565b15610bbd576000600282600a81101515610b8957fe5b600202016001600281101515610b9b57fe5b019080546001816001161561010002031660029004610bbb929190610c4f565b505b8080600101915050610a0c565b505050565b828054600181600116156101000203166002900490600052602060002090601f016020900481019282601f10610c1057805160ff1916838001178555610c3e565b82800160010185558215610c3e579182015b82811115610c3d578251825591602001919060010190610c22565b5b509050610c4b9190610cd6565b5090565b828054600181600116156101000203166002900490600052602060002090601f016020900481019282601f10610c885780548555610cc5565b82800160010185558215610cc557600052602060002091601f016020900482015b82811115610cc4578254825591600101919060010190610ca9565b5b509050610cd29190610cd6565b5090565b610cf891905b80821115610cf4576000816000905550600101610cdc565b5090565b9056fea165627a7a72305820ccedc277b4d0fe7c0d456d12e47172aa87d09681e4cfe9adeaed6174b8d25a1a0029",
  "source": "pragma solidity ^0.5.0;\ncontract File {\n//smart contract\nstring fileHash='QmbN76A1SYeDaN3z1NwyncsHyyCyDroGE9hLU5EL9GfwK1';//global\nstring account;\nstring[2][10] table = [['0x9F44A2e74943d2233c2232185768B8627d8Fe5C0',''],\n['0xae4272F02887FF1B8fedF7864ba4841F73fd7Bb2',''],\n['0xce0FEc4B6Dd87a5be6c4151c45ae4CD5A8508C6e',''],\n['0x49fe3d50FA3ac255150B943a0f0aAA8275175A3f',''],\n['0x44359EECEFbDAb93FB8c82639161D0B03ac1714C',''],\n['0x2f63668C2AFD2c97FE2729E376262BFdcA59A61F',''],\n['0x15b52C7C1A1686193DEEF300C4012a5D12F31ADA',''],\n['0x405359b59C62d1D9cDAB2b6A04c0fEaEf2f3847A',''],\n['0x512200CEe7f828D664df8D61af857B1a683B4Aad',''],\n['0x11b4015Dec42BACd6EFc52B349dDE00C49C2a62b','']\n];\nfunction compareStrings (string memory a, string memory b) public view returns (bool) {\n           return(keccak256(abi.encodePacked((a))) == keccak256(abi.encodePacked((b))));\n       }\n//write\nfunction set (string memory _account,string memory _fileHash) public {\n      account = _account;\n      fileHash = _fileHash;\n      for(uint i = 0; i < 10; i++){\n         if(compareStrings(account,table[i][0])){\n             table[i][1] = fileHash;\n         }\n      }\n\n\n}\n//read\nfunction get(string memory _account)  public returns(string memory){\n    account = _account;\n    for(uint i = 0; i < 10; i++){\nif(compareStrings(account,table[i][0])){\n             if(compareStrings(table[i][1],'')){\n                 return fileHash = 'QmbN76A1SYeDaN3z1NwyncsHyyCyDroGE9hLU5EL9GfwK1';\n             }\n             else{\n             fileHash = table[i][1];\n             return fileHash;\n             }\n}\n\n    }\n}\n//function setstate() public view returns (string memory){\n           //return fileHash ;\n//}\n\n}",
  "sourcePath": "/home/srinivasan/miniproj/src/contracts/File.sol",
  "compiler": {
    "name": "solc",
    "version": "0.5.0+commit.1d4f565a.Emscripten.clang"
  },
  "schemaVersion": "3.0.2",
  "updatedAt": "2019-10-18T10:56:20.949Z",
  "devdoc": {
    "methods": {}
  },
  "userdoc": {
    "methods": {}
  }
}